:100000000C9435000C945D000C945D000C945D0024
:100010000C945D000C945D000C945D000C945D00EC
:100020000C945D000C945D000C945D000C945D00DC
:100030000C945D000C945D000C945D000C945D00CC
:100040000C946B030C945D000C94D0010C94020290
:100050000C945D000C945D000C945D000C945D00AC
:100060000C945D000C945D00320211241FBECFEF92
:10007000D8E0DEBFCDBF11E0A0E0B1E0E4E3F8E0FE
:1000800002C005900D92A031B107D9F721E0A0E19F
:10009000B1E001C01D92AA3BB207E1F710E0CAE649
:1000A000D0E004C02297FE010E941404C836D10794
:1000B000C9F70E9476020C9418040C94000026E004
:1000C00040E052EC61E070E084E191E00C946E015C
:1000D000CF93DF9384E191E00E948B0018161906FC
:1000E000BCF4C0E1D1E084E191E00E94A4008993D6
:1000F00081E0C431D807B9F7609110017091110106
:100100004AE050E084E191E0DF91CF910C946303E9
:10011000DF91CF910895FC01818D228D90E0805C6C
:100120009F4F821B91098F7399270895FC01918D30
:10013000828D981731F0828DE80FF11D858D90E04A
:1001400008958FEF9FEF0895FC01918D828D981790
:1001500061F0828DDF01A80FB11D5D968C91928DAB
:100160009F5F9F73928F90E008958FEF9FEF0895A8
:1001700088E292E0892B49F080E090E0892B29F019
:100180000E94280281110C9400000895FC01848DC6
:10019000DF01A80FB11DA35ABF4F2C91848D90E0B1
:1001A00001968F739927848FA689B7892C93A0898C
:1001B000B1898C9180648C93938D848D981306C043
:1001C0000288F389E02D80818F7D80830895CF930D
:1001D000DF93EC01888D8823C9F0EA89FB8980814F
:1001E00085FD05C0A889B9898C9186FD0FC00FB621
:1001F00007FCF5CF808185FFF2CFA889B9898C9162
:1002000085FFEDCFCE010E94C600E7CFDF91CF91F1
:100210000895CF92DF92FF920F931F93CF93DF93B6
:100220001F92CDB7DEB76C0181E0D60158968C9352
:1002300058975B969C915B975C968C915C97981312
:1002400007C05096ED91FC915197808185FD2EC09D
:10025000F601038D10E00F5F1F4F0F731127F02E73
:10026000F601848DF81211C00FB607FCF9CFD60144
:100270005096ED91FC915197808185FFF1CFC60199
:1002800069830E94C6006981EBCF838DE80FF11D61
:10029000E35AFF4F6083D6015B960C935B975296AF
:1002A000ED91FC915397808180620CC0D6015696E7
:1002B000ED91FC91579760835096ED91FC91519789
:1002C00080818064808381E090E00F90DF91CF9106
:1002D0001F910F91FF90DF90CF900895BF92CF9222
:1002E000DF92EF92FF92CF93DF93EC016A017B01E3
:1002F000B22EE889F98982E08083411581EE5807A2
:1003000061057105A1F060E079E08DE390E0A7015F
:1003100096010E94F0032150310941095109569577
:10032000479537952795211580E1380798F0E8899A
:10033000F989108260E874E88EE190E0A7019601E7
:100340000E94F00321503109410951095695479502
:1003500037952795EC85FD853083EE85FF852083D5
:10036000188EEC89FD89B082EA89FB8980818061E1
:100370008083EA89FB89808188608083EA89FB89A0
:10038000808180688083EA89FB8980818F7D80837A
:10039000DF91CF91FF90EF90DF90CF90BF900895C5
:1003A0001F920F920FB60F9211242F938F939F934A
:1003B000EF93FF93E0912401F09125018081E0917A
:1003C0002A01F0912B0182FD12C0908180912D01B4
:1003D0008F5F8F7320912E01821751F0E0912D01D4
:1003E000F0E0EC5EFE4F958F80932D0101C080817F
:1003F000FF91EF919F918F912F910F900FBE0F90D2
:100400001F9018951F920F920FB60F9211242F93E1
:100410003F934F935F936F937F938F939F93AF938C
:10042000BF93EF93FF9384E191E00E94C600FF9198
:10043000EF91BF91AF919F918F917F916F915F915C
:100440004F913F912F910F900FBE0F901F901895D5
:1004500084E191E00E948B0021E0892B09F420E0E7
:10046000822F0895109217011092160188EE93E0E2
:10047000A0E0B0E08093180190931901A0931A01B5
:10048000B0931B0184E091E09093150180931401D7
:1004900085EC90E0909321018093200184EC90E022
:1004A000909323018093220180EC90E090932501AA
:1004B0008093240181EC90E09093270180932601A2
:1004C00082EC90E0909329018093280186EC90E0E3
:1004D00090932B0180932A0110922D0110922E01EE
:1004E00010922F0110923001089508950E94B503D3
:1004F0000E9475020E945F00C8EBD0E00E94680075
:100500002097E1F30E94B800F9CFCF92DF92EF92EB
:10051000FF920F931F93CF93DF937C016A01EB014E
:1005200000E010E00C151D0571F06991D701ED9107
:10053000FC910190F081E02DC7010995892B19F0FC
:100540000F5F1F4FEFCFC801DF91CF911F910F9128
:10055000FF90EF90DF90CF9008956115710581F0C5
:10056000DB010D900020E9F7AD0141505109461B18
:10057000570BDC01ED91FC910280F381E02D099491
:1005800080E090E00895DC01ED91FC910190F08114
:10059000E02D09948F929F92AF92BF92DF92EF92DB
:1005A000FF920F931F93CF93DF93CDB7DEB7A19741
:1005B0000FB6F894DEBF0FBECDBF7C01F42FD52E51
:1005C000CB0119A2223008F42AE08E010F5D1F4FE3
:1005D000822E912CA12CB12C6F2F7D2DA501940181
:1005E0000E94F003F22FD32ECA01015011096A3084
:1005F00014F4E0E301C0E7E3E60FD801EC93232B0A
:10060000242B252B49F7B801C7010E94AD02A19602
:100610000FB6F894DEBF0FBECDBFDF91CF911F9113
:100620000F91FF90EF90DF90BF90AF909F908F90D1
:100630000895CF92DF92EF92FF920F931F93CF9383
:10064000DF93EC016A017B012115310579F4E88122
:10065000F9810190F081E02D642FDF91CF911F91FE
:100660000F91FF90EF90DF90CF9009942A303105E1
:10067000E9F477FF1AC06DE20E94C3028C0144279F
:100680005527BA014C195D096E097F092AE0CE0190
:100690000E94CA02800F911FDF91CF911F910F918D
:1006A000FF90EF90DF90CF9008952AE0B701A60168
:1006B000CE01DF91CF911F910F91FF90EF90DF90CE
:1006C000CF900C94CA029A01AB01662757FD609542
:1006D000762F0C9419031F920F920FB60F921124CC
:1006E0002F933F938F939F93AF93BF938091B201CA
:1006F0009091B301A091B401B091B5013091B101D5
:1007000023E0230F2D3720F40196A11DB11D05C054
:1007100026E8230F0296A11DB11D2093B1018093FD
:10072000B2019093B301A093B401B093B50180914D
:10073000B6019091B701A091B801B091B9010196AD
:10074000A11DB11D8093B6019093B701A093B8018C
:10075000B093B901BF91AF919F918F913F912F912C
:100760000F900FBE0F901F901895789484B58260FB
:1007700084BD84B5816084BD85B5826085BD85B545
:10078000816085BDEEE6F0E0808181608083E1E8F4
:10079000F0E010828081826080838081816080832C
:1007A000E0E8F0E0808181608083E1EBF0E080812F
:1007B00084608083E0EBF0E0808181608083EAE701
:1007C000F0E080818460808380818260808380818A
:1007D000816080838081806880831092C100089549
:1007E000A1E21A2EAA1BBB1BFD010DC0AA1FBB1F35
:1007F000EE1FFF1FA217B307E407F50720F0A21BA7
:10080000B30BE40BF50B661F771F881F991F1A9413
:1008100069F760957095809590959B01AC01BD013D
:10082000CF010895EE0FFF1F0590F491E02D09947C
:04083000F894FFCF6A
:1008340000000000090185028B00A4009600E70077
:00000001FF
